:020000040000FA
:100000000C9463000C948B000C948B000C943B04B8
:100010000C943B040C943B040C948B000C948B00CC
:100020000C948B000C948B000C948B000C948B0024
:100030000C948B000C948B000C948B000C948B0014
:100040000C94F1030C948B000C94BF030C94990353
:100050000C948B000C948B000C948B000C948B00F4
:100060000C948B000C948B0000000008000201002F
:100070000003040700000000000000000000000072
:10008000240027002A000000000023002600290089
:1000900000000000250028002B00040404040404D0
:1000A0000404020202020202030303030303010227
:1000B00004081020408001020408102001020408F6
:1000C0001020B304850711241FBECFEFD8E0DEBF98
:1000D000CDBF12E0A0E0B1E0EAECFFE002C0059085
:1000E0000D92A033B107D9F723E0A0E3B2E001C03D
:1000F0001D92AC33B207E1F710E0C2E6D0E004C0D5
:100100002197FE010E94C907C136D107C9F70E9495
:100110005E050C94D8070C940000AF92BF92CF926A
:10012000DF92EF92FF920F931F93CF93DF936C01B7
:100130007B018B01040F151FEB015E01AE18BF0898
:10014000C017D10759F06991D601ED91FC9101904A
:10015000F081E02DC6010995892B79F7C501DF9162
:10016000CF911F910F91FF90EF90DF90CF90BF90B4
:10017000AF900895FC01538D448D252F30E0842FDE
:1001800090E0821B930B541710F0CF9608950197BF
:100190000895FC01918D828D981761F0A28DAE0FAC
:1001A000BF2FB11D5D968C91928D9F5F9F73928F33
:1001B00090E008958FEF9FEF0895FC01918D828D5F
:1001C000981731F0828DE80FF11D858D90E008952C
:1001D0008FEF9FEF0895FC01918D228D892F90E084
:1001E000805C9F4F821B91098F739927089580E847
:1001F00092E00E94EB0021E0892B09F420E0822F9D
:10020000089580E090E0892B29F00E94F700811189
:100210000C9400000895FC01A48DA80FB92FB11D06
:10022000A35ABF4F2C91848D90E001968F7399272C
:10023000848FA689B7892C93A089B1898C9183700A
:1002400080648C93938D848D981306C00288F38903
:10025000E02D80818F7D80830895EF92FF920F9330
:100260001F93CF93DF93EC0181E0888F9B8D8C8D62
:1002700098131AC0E889F989808185FF15C09FB756
:10028000F894EE89FF896083E889F9898081837019
:10029000806480839FBF81E090E0DF91CF911F91C8
:1002A0000F91FF90EF900895F62E0B8D10E00F5FE9
:1002B0001F4F0F731127E02E8C8D8E110CC00FB6BF
:1002C00007FCFACFE889F989808185FFF5CFCE0157
:1002D0000E940B01F1CFEB8DEC0FFD2FF11DE35AC6
:1002E000FF4FF0829FB7F8940B8FEA89FB898081DA
:1002F0008062CFCFCF93DF93EC01888D8823B9F054
:10030000AA89BB89E889F9898C9185FD03C0808120
:1003100086FD0DC00FB607FCF7CF8C9185FFF2CF9D
:10032000808185FFEDCFCE010E940B01E9CFDF91E7
:10033000CF91089590E0FC01E859FF4F2491FC0112
:10034000E255FF4F3491FC01E656FF4FE491EE2356
:10035000C9F0222339F0233001F1A8F4213019F13A
:10036000223029F1F0E0EE0FFF1FE057FF4FA5917B
:10037000B4918FB7F894EC91611126C030953E236B
:100380003C938FBF08952730A9F02830C9F024305E
:1003900049F7809180008F7D03C0809180008F7726
:1003A00080938000DFCF84B58F7784BDDBCF84B5A9
:1003B0008F7DFBCF8091B0008F778093B000D2CF3C
:1003C0008091B0008F7DF9CF3E2BDACFCF93DF93B2
:1003D00090E0FC01E255FF4F249186569F4FFC01AF
:1003E00084918823D1F090E0880F991FFC01E45894
:1003F000FF4FA591B491FC01E057FF4FC591D491F7
:1004000061110EC09FB7F8948C91E22FE0958E2376
:100410008C932881E223E8839FBFDF91CF910895D9
:100420008FB7F894EC91E22BEC938FBFF6CF3FB7E8
:10043000F8948091750290917602A0917702B09124
:10044000780226B5A89B05C02F3F19F00196A11D83
:10045000B11D3FBFBA2FA92F982F8827BC01CD010E
:10046000620F711D811D911D42E0660F771F881F6D
:10047000991F4A95D1F708958F929F92AF92BF929C
:10048000CF92DF92EF92FF924B015C010E94170224
:100490006B017C010E9417026C197D098E099F096E
:1004A000683E734081059105A8F321E0821A910806
:1004B000A108B10888EEC80E83E0D81EE11CF11C2B
:1004C00081149104A104B10429F7FF90EF90DF900B
:1004D000CF90BF90AF909F908F90089520917B0216
:1004E00030917C022817390771F49091790280913C
:1004F0007A02981741F0E0917902F0E0E05DFD4F5B
:10050000808190E008958FEF9FEF08950895EF9216
:10051000FF920F931F93CF93DF93DC015C96ED90D6
:10052000FC905D97E114F10479F481E090E013967A
:100530009C938E93129790E080E0DF91CF911F9172
:100540000F91FF90EF9008955196ED91FC91529785
:1005500050968C915097982F90950FB75E962C914E
:100560005E97122F127021FD6095F894208111235F
:1005700019F1282B2083E7012197F1F728E0462F76
:1005800050E0308160FF1AC0382B3083E70121979B
:10059000F1F7BA0175956795215089F7112381F01C
:1005A0008081892380830FBF5C968D919C910197F8
:1005B000F1F781E090E0C1CF2923DCCF3923E5CFEB
:1005C0009081892BEFCF20917B0230917C022817FC
:1005D000390771F480917A022091790290E0805C71
:1005E0009F4F821B910960E470E00E94A10708956B
:1005F00090E080E0089520917B0230917C022817E2
:100600003907B9F49091790280917A02981789F0AC
:10061000E0917902F0E0E05DFD4F80812091790268
:1006200030E02F5F3F4F2F7333272093790290E004
:1006300008958FEF9FEF089590E080E008958EBDBC
:1006400000000DB407FEFDCF8EB50895FB010190AB
:100650000020E9F73197AF01461B570BDC01ED9104
:10066000FC910280F381E02D09940F931F93CF93A7
:10067000DF93EC010E9426038C016CE471E0CE0153
:100680000E942603800F911FDF91CF911F910F9140
:100690000895CF93DF93EC016FE471E080E892E07E
:1006A0000E9435036FE671E08DE193E00E9435030F
:1006B00068EE73E080E090E00E943C0269E771E040
:1006C00080E892E00E94350368E871E08DE193E0F4
:1006D0000E94350368EE73E080E090E00E943C02E7
:1006E000BE0180E892E00E943503BE018DE193E0F7
:1006F0000E94350364E670E080E090E00E943C02D6
:1007000061EA71E080E892E00E9435036AE18DE1E0
:1007100093E00E9487026CE471E08DE193E00E9417
:10072000260366EA71E080E892E0DF91CF910C94B5
:1007300035031F920F920FB60F9211242F933F9300
:100740004F935F936F937F938F939F93AF93BF93D9
:10075000EF93FF9380E892E00E940B01FF91EF91ED
:10076000BF91AF919F918F917F916F915F914F91C9
:100770003F912F910F900FBE0F901F9018951F92D1
:100780000F920FB60F9211242F938F939F93EF9395
:10079000FF93E0919002F09191028081E0919602A6
:1007A000F091970282FD1BC09081809199028F5F2A
:1007B0008F7320919A02821741F0E0919902F0E044
:1007C000E058FD4F958F80939902FF91EF919F9193
:1007D0008F912F910F900FBE0F901F9018958081D1
:1007E000F4CF1F920F920FB60F9211242F933F93C5
:1007F0008F939F93AF93BF938091710290917202F8
:10080000A0917302B09174023091700223E0230F23
:100810002D3758F50196A11DB11D209370028093CC
:10082000710290937202A0937302B093740280914C
:10083000750290917602A0917702B09178020196AC
:10084000A11DB11D8093750290937602A09377024B
:10085000B0937802BF91AF919F918F913F912F916B
:100860000F900FBE0F901F90189526E8230F029649
:10087000A11DB11DD2CF1F920F920FB60F9211245E
:100880002F933F934F935F936F937F938F939F9398
:10089000AF93BF93EF93FF93E0917B02F0917C02C3
:1008A000309749F0A685B7858585968D91FF14C050
:1008B0009C918923A1F4FF91EF91BF91AF919F91FA
:1008C0008F917F916F915F914F913F912F910F90F9
:1008D0000FBE0F901F9018959C91892361F7A389F3
:1008E000B4899C918589809589238C938689978981
:1008F0000197F1F7608D718DA685B785558538E034
:1009000020E0CB010197F1F7822F90E09595879534
:10091000282F4C91452309F02068315091F7868D9E
:1009200081FD209580917A0290E001968F7399273E
:1009300030917902381799F0A0917A02B0E0A05D69
:10094000BD4F2C9380937A02828D938D0197F1F79E
:10095000A389B4898C919589892B8C93ACCF868D92
:100960008160868FF1CF109283021092820288EE0E
:1009700093E0A0E0B0E08093840290938502A0937E
:100980008602B09387022CE231E0309381022093FB
:10099000800225EC30E030938D0220938C0224EC11
:1009A00030E030938F0220938E0220EC30E03093C1
:1009B00091022093900221EC30E030939302209337
:1009C000920222EC30E0309395022093940226ECC0
:1009D00030E0309397022093960210929902109281
:1009E0009A0210929B0210929C0210922003109285
:1009F0001F038093210390932203A0932303B093BA
:100A000024038EE391E090931E0380931D031092C4
:100A10003403109233031092360310923503109270
:100A200038031092370310923A0310923903609101
:100A30003B036E7F6D7F60933B036695617081E041
:100A4000682783E00E949A0161E083E00E94E6014A
:100A5000E1EBF0E0E491E0932D03EDE9F0E0E491C7
:100A6000F0E0EE0FFF1FE057FF4F859194919093B8
:100A70002F0380932E0360E082E00E94E6018091C4
:100A80003B0381FD04C061E082E00E949A0182E0A4
:100A900080932903E0EBF0E0E491E0932A03ECE992
:100AA000F0E0E491F0E0EE0FFF1FEA57FF4F859171
:100AB000949190932C0380932B030895CF93DF930D
:100AC000CDB7DEB7A8970FB6F894DEBF0FBECDBF87
:100AD000789484B5826084BD84B5816084BD85B519
:100AE000826085BD85B5816085BD80916E00816025
:100AF00080936E00109281008091810082608093CB
:100B000081008091810081608093810080918000CC
:100B10008160809380008091B10084608093B100F7
:100B20008091B00081608093B00080917A008460F1
:100B300080937A0080917A00826080937A0080911D
:100B40007A00816080937A0080917A008068809337
:100B50007A001092C100109238031092370310925D
:100B600036031092350310923403109233038DE94B
:100B700091E090933A038093390390912903963141
:100B800008F047C02DEB30E030933403209333035B
:100B90002BE931E030933603209335032CE231E02A
:100BA00030933803209337032091680084E0983015
:100BB00048F031E09E3008F430E081E001C0880F59
:100BC0003A95EAF7822B809368002DE630E0983062
:100BD00050F02BE630E09E3030F02CE630E09631DD
:100BE00010F030E020E03093310320933003292FC0
:100BF00030E0983008F066C181E001C0880F9A9516
:100C0000EAF7809332038091390390913A03019778
:100C1000F1F78091370390913803892B49F1E091E6
:100C20007B02F0917C0283E0ED31F80709F1309707
:100C300039F0A389B4899C918589809589238C9307
:100C400080913B038E7F80933B0310927A02109237
:100C500079028DE193E090937C0280937B02E09196
:100C60003003F0913103808190913203892B80838E
:100C7000E0919002F091910282E08083E0918C02F9
:100C8000F0918D021082E0918E02F0918F028FEC34
:100C9000808310929802E0919402F091950286E090
:100CA0008083E0919202F091930280818061808341
:100CB000E0919202F0919302808188608083E091BC
:100CC0009202F0919302808180688083E091920289
:100CD000F091930280818F7D80836FEB71E080E8DB
:100CE00092E00E94350361E08AE00E94E60161E043
:100CF00089E00E94E60161E08AE00E949A0161E0D9
:100D000089E00E949A011FB7F89480917D028111B9
:100D100027C0E4EAF0E08491E8EBF0E09491E82F5A
:100D2000F0E0EE0FFF1FE458FF4FA591B491EC9156
:100D3000E92321F461E08AE00E949A0161E08AE0FF
:100D40000E94E6018CB580618CBD8CB580648CBD41
:100D500061E08DE00E94E60161E08BE00E94E60127
:100D600080917D028F5F80937D021FBF8CB58C7F49
:100D700081608CBD8DB581608DBD5E01E8E2AE0EF7
:100D8000B11C87E3E82EF12C6E01F4E1CF0ED11CEB
:100D900090E0892E90E0992E60E08AE00E949A010E
:100DA00081E00E941F038E010B5E1F4F38010A1560
:100DB0001B0559F0C7010197F1F780E00E941F035E
:100DC000F80181938F018111F2CF18A661E08AE0CA
:100DD0000E949A0180917E0290917F0201969093E9
:100DE0007F0280937E020297CCF068EC71E080E88D
:100DF00092E00E942603B30180E892E00E9435034E
:100E000064E171E0C3010E94CF07892B09F067C03C
:100E100067ED71E080E892E00E94350368EE73E0D0
:100E200080E090E00E943C0260E089E00E949A012C
:100E300081E00E941F038E010F5F1F4F3801C01613
:100E4000D10659F0C7010197F1F780E00E941F0316
:100E5000F80181938F018111F2CF1C8A61E089E052
:100E60000E949A0180917E0290917F020297C4F0C5
:100E70006CEF71E080E892E00E942603B30180E805
:100E800092E00E94350360E071E0C3010E94CF0749
:100E9000892B81F56AE072E080E892E00E943503D8
:100EA00068EE73E080E090E00E943C0281149104BF
:100EB00009F472CF0E94F700882309F46DCF0E94D5
:100EC00000006ACF9E3040F42850310981E001C013
:100ED000880F2A95EAF795CE2E503109F7CF69EEA3
:100EE00071E080E892E00E94350389EE91E00E9473
:100EF000490394CF6CE172E080E892E00E943503F0
:100F00008CE192E00E944903CBCF8EE391E0909375
:100F10001E0380931D0380917B0290917C028D5172
:100F2000934071F4E0913003F0913103908180910E
:100F3000320380958923808310927C0210927B0279
:100F4000089597FB072E16F4009407D077FD09D07B
:100F50000E94B50707FC05D03EF4909581959F4F00
:100F60000895709561957F4F0895AA1BBB1B51E1B1
:100F700007C0AA1FBB1FA617B70710F0A61BB70B09
:100F8000881F991F5A95A9F780959095BC01CD01AE
:100F90000895EE0FFF1F0590F491E02D0994FB01D9
:100FA000DC018D91019080190110D9F3990B0895FE
:100FB00010E0C2E6D0E004C0FE010E94C9072196FD
:100FC000C336D107C9F7F894FFCF48656C6C6F2C16
:100FD00020776F726C7321000000000000004865EC
:100FE0006C6C6F2C20776F726C6421000000000025
:100FF0000000000000002D018D00BA007A01EB0016
:10100000C900DD000000000087028D001C0386027D
:10101000E302FB026E020D0A0053656E64696E679F
:10102000204D65737361676520706C656173652021
:10103000776169742E2E2E2E0041542B434D474666
:101040003D310053657420534D53204E756D6265DC
:10105000720041542B434D47533D222B3931585890
:101060005858585858585858220D00446F6E65000B
:101070004D6573736167652073656E742073756366
:1010800063657366756C6C79005374617274696E14
:1010900067005765207265636569766564323A203A
:1010A00000536C61766531206F6E206E6574776FCA
:1010B000726B00536C61766531206F6666206E65D9
:1010C00074776F726B00576520726563656976652A
:1010D000643A2000536C61766532206F6E206E6535
:1010E00074776F726B00536C61766532206F666641
:0A10F000206E6574776F726B0000CC
:107E0000112484B714BE81FFF0D085E080938100F7
:107E100082E08093C00088E18093C10086E0809377
:107E2000C20080E18093C4008EE0C9D0259A86E02C
:107E300020E33CEF91E0309385002093840096BBD3
:107E4000B09BFECF1D9AA8958150A9F7CC24DD24C4
:107E500088248394B5E0AB2EA1E19A2EF3E0BF2EE7
:107E6000A2D0813461F49FD0082FAFD0023811F036
:107E7000013811F484E001C083E08DD089C08234E0
:107E800011F484E103C0853419F485E0A6D080C0E4
:107E9000853579F488D0E82EFF2485D0082F10E0AE
:107EA000102F00270E291F29000F111F8ED06801E7
:107EB0006FC0863521F484E090D080E0DECF843638
:107EC00009F040C070D06FD0082F6DD080E0C81688
:107ED00080E7D80618F4F601B7BEE895C0E0D1E017
:107EE00062D089930C17E1F7F0E0CF16F0E7DF06D8
:107EF00018F0F601B7BEE89568D007B600FCFDCFD4
:107F0000A601A0E0B1E02C9130E011968C91119780
:107F100090E0982F8827822B932B1296FA010C0160
:107F200087BEE89511244E5F5F4FF1E0A038BF0790
:107F300051F7F601A7BEE89507B600FCFDCF97BE46
:107F4000E89526C08437B1F42ED02DD0F82E2BD052
:107F50003CD0F601EF2C8F010F5F1F4F84911BD097
:107F6000EA94F801C1F70894C11CD11CFA94CF0C13
:107F7000D11C0EC0853739F428D08EE10CD085E9AC
:107F80000AD08FE07ACF813511F488E018D01DD067
:107F900080E101D065CF982F8091C00085FFFCCF94
:107FA0009093C60008958091C00087FFFCCF809118
:107FB000C00084FD01C0A8958091C6000895E0E648
:107FC000F0E098E1908380830895EDDF803219F02E
:107FD00088E0F5DFFFCF84E1DECF1F93182FE3DFCA
:107FE0001150E9F7F2DF1F91089580E0E8DFEE27F6
:047FF000FF270994CA
:027FFE00040479
:00000001FF
