:020000040000FA
:100000000C945D000C9485000C9485000C94850084
:100010000C9485000C9485000C9485000C9485004C
:100020000C9485000C9485000C9485000C9485003C
:100030000C9485000C9485000C9485000C9485002C
:100040000C9438030C9482030C9485000C94850066
:100050000C9485000C9485000C9485000C9485000C
:100060000C9485000C9485000000000024002700FB
:100070002A0000000000250028002B0004040404CE
:100080000404040402020202020203030303030342
:10009000010204081020408001020408102001021F
:1000A00004081020000000080002010000030407FB
:1000B0000000000000000000750511241FBECFEFF6
:1000C000D8E0DEBFCDBF11E0A0E0B1E0EEE0FFE0A0
:1000D00002C005900D92AA35B107D9F721E0AAE533
:1000E000B1E001C01D92AE37B207E1F710E0CDE5F7
:1000F000D0E004C02197FE010E947F07CC35D107D4
:10010000C9F70E94D7030C9485070C940000AF92A6
:10011000BF92CF92DF92EF92FF920F931F93CF93F4
:10012000DF936C017B018B01040F151FEB015E0156
:10013000AE18BF08C017D10759F06991D601ED91EB
:10014000FC910190F081E02DC6010995892B79F78A
:10015000C501DF91CF911F910F91FF90EF90DF903C
:10016000CF90BF90AF90089590E0FC01EC55FF4F09
:100170002491FC01E057FF4F3491FC01E458FF4FFC
:10018000E491EE23C9F0222339F0233001F1A8F4E1
:10019000213019F1223029F1F0E0EE0FFF1FEE5867
:1001A000FF4FA591B4918FB7F894EC91611126C0DF
:1001B00030953E233C938FBF08952730A9F0283017
:1001C000C9F0243049F7809180008F7D03C0809171
:1001D00080008F7780938000DFCF84B58F7784BDD8
:1001E000DBCF84B58F7DFBCF8091B0008F7780937C
:1001F000B000D2CF8091B0008F7DF9CF3E2BDACF07
:10020000CF93DF9390E0FC01E057FF4F2491845897
:100210009F4FFC0184918823D1F090E0880F991FB3
:10022000FC01E859FF4FA591B491FC01EE58FF4F36
:10023000C591D49161110EC09FB7F8948C91E22FB3
:10024000E0958E238C932881E223E8839FBFDF9182
:10025000CF9108958FB7F894EC91E22BEC938FBF78
:10026000F6CF3FB7F8948091620190916301A0911D
:100270006401B091650126B5A89B05C02F3F19F018
:100280000196A11DB11D3FBFBA2FA92F982F882716
:10029000BC01CD01620F711D811D911D42E0660FF1
:1002A000771F881F991F4A95D1F708958F929F92C3
:1002B000AF92BF92CF92DF92EF92FF920E943101F4
:1002C0004B015C0184EFC82EDD24D394E12CF12C8A
:1002D0000E943101681979098A099B09683E7340B7
:1002E00081059105A8F321E0C21AD108E108F108BF
:1002F00088EE880E83E0981EA11CB11CC114D104A5
:10030000E104F10429F7FF90EF90DF90CF90BF90C8
:10031000AF909F908F900895089590E080E00895A9
:10032000FC0101900020E9F73197AF01481B590B00
:10033000BC0186E691E00C9487008F929F92AF9269
:10034000BF920F931F93CF93DF93CDB7DEB7A197E3
:100350000FB6F894DEBF0FBECDBF19A2423008F42D
:100360004AE08E010F5D1F4F842E912CB12CA12CE1
:10037000A50194010E945D07E62FB901CA01EA3088
:10038000F4F4E05DD801EE938D01232B242B252B73
:1003900079F790E080E0109719F0CD010E9490016C
:1003A000A1960FB6F894DEBF0FBECDBFDF91CF91FF
:1003B0001F910F91BF90AF909F908F900895E95C2F
:1003C000E1CFCF93DF93EC0160E08E810E94B40017
:1003D00061E08E810E94B40060E08E810E94B400D2
:1003E0008BE891E00197F1F7DF91CF910895CF92DB
:1003F000DF92EF92FF920F931F93CF93DF936C01E5
:100400007C0187E0E80EF11CD0E0C0E0062F10E090
:10041000B8010C2E02C0759567950A94E2F76170D9
:10042000F70181917F010E94B4002196C430D1056B
:1004300079F7C601DF91CF911F910F91FF90EF9057
:10044000DF90CF900C94E101CF92DF92EF92FF9278
:100450000F931F93CF93DF93EC01F62E642F8C81C3
:100460000E94B4008D818F3F19F060E00E94B400BB
:100470000F2D10E08F8584FF25C06E0187E0C80E28
:10048000D11CF12CE12CB8010E2C02C0759567959A
:100490000A94E2F76170F60181916F010E94B40045
:1004A000FFEFEF1AFF0A88E0E816F10461F7CE01CA
:1004B000DF91CF911F910F91FF90EF90DF90CF9040
:1004C0000C94E101B80184E0759567958A95E1F790
:1004D000CE010E94F7016F2DCE01DF91CF911F91C8
:1004E0000F91FF90EF90DF90CF900C94F70140E0D8
:1004F000682F86E691E00C942402CF93DF9382303C
:1005000029F4909175019860909375018093790119
:1005100010927A0180E480937B0180E180937C01DA
:1005200080E580937D0161E080916A010E94000175
:1005300080916B018F3F19F061E00E94000161E042
:1005400080916C010E940001C6E6D1E09E01265612
:1005500031408091750184FD0BC084E090E02196CC
:100560002817390744F461E08E810E940001EECF24
:1005700088E090E0F4CF8BE39DE00197F1F760E035
:1005800080916A010E94B40060E080916C010E9439
:10059000B40080916B018F3F19F060E00E94B400BD
:1005A0008091750184FD39C063E086E691E00E9488
:1005B000F701CBE4D6E4CE010197F1F763E086E6DC
:1005C00091E00E94F7012197F1F763E086E691E060
:1005D0000E94F70183E592E00197F1F762E086E679
:1005E00091E00E94F7018091750180620E9477027C
:1005F00084E0809376018CE00E94770281E00E9483
:1006000077028BE39FE10197F1F782E08093770116
:1006100086E0DF91CF910C94770280620E9477028E
:100620008BE496E40197F1F78091750180620E9456
:10063000770283E592E00197F1F78091750180627E
:100640000E947702D0CF90917901691710F06FEF77
:10065000690FE62FF0E0EA59FE4F9489890F806810
:100660000C94770241E00E94240281E090E008951A
:100670001F920F920FB60F9211242F933F938F93D7
:100680009F93AF93BF9380915E0190915F01A09182
:100690006001B091610130915D0123E0230F2D379E
:1006A00058F50196A11DB11D20935D0180935E0157
:1006B00090935F01A0936001B0936101809162010A
:1006C00090916301A0916401B09165010196A11D13
:1006D000B11D8093620190936301A0936401B09374
:1006E0006501BF91AF919F918F913F912F910F9095
:1006F0000FBE0F901F90189526E8230F0296A11D9C
:10070000B11DD2CF1F920F920FB60F9211242F93CB
:100710003F938F939F93EF93FF938EB5813009F5AD
:1007200080935C0110925B0110925A0180915A01F2
:1007300090915B019C012F5F3F4F30935B012093B1
:100740005A0180509F4FFC0180818EBDFF91EF9137
:100750009F918F913F912F910F900FBE0F901F90FF
:10076000189580915C01811102C01EBCEFCFE09111
:100770005A01F0915B01E050FF4F80818EBDE09106
:100780005A01F0915B01E050FF4F8081811103C05D
:1007900010925C01DBCF80915A0190915B01019630
:1007A00090935B0180935A01449790F7CFCF789450
:1007B00084B5826084BD84B5816084BD85B5826066
:1007C00085BD85B5816085BD80916E008160809317
:1007D0006E00109281008091810082608093810080
:1007E0008091810081608093810080918000816090
:1007F000809380008091B10084608093B1008091EB
:10080000B00081608093B00080917A008460809312
:100810007A0080917A00826080937A0080917A00D9
:10082000816080937A0080917A00806880937A005A
:100830001092C10061E08CE00E94000160E082E162
:100840000E94000182E00E947D028CB580648CBD14
:100850008CB580688CBD84E4382E00E010E03092C6
:100860007C0080917A00806480937A0080917A0085
:1008700086FDFCCF80917800C0917900DC2FC82FD5
:100880004E010D2E000CAA08BB08C501B4010E9440
:10089000360620E030E040EA5BE30E94EB066B01A5
:1008A0007C0160E080E00E9423034AE0C501B401BE
:1008B000D7FF0EC041E06DE286E691E00E9424027F
:1008C00066277727CB01681979098A099B094AE0CD
:1008D0000E949D0160E086E00E942303A70196012B
:1008E000C701B6010E945807882309F46AC080E254
:1008F00091E00E9490018CE291E00E9490010E94A0
:10090000560120E030E0A901C701B6010E94E606C9
:1009100087FD14C02DEC3CEC4CEC5FE3C701B60145
:100920000E940006181654F061E080E00E94230344
:100930008FE291E00E9490010E9456012AE939E974
:1009400049ED5FE3C701B6010E94E60687FD14C0CA
:1009500023E333E343E550E4C701B6010E940006F8
:10096000181654F061E080E00E9423038DE391E0CB
:100970000E9490010E9456012AE939E949E550E4B4
:10098000C701B6010E94E60687FD14C020E030E0F2
:1009900040EA50E4C701B6010E940006181654F060
:1009A00061E080E00E9423038AE491E00E949001CC
:1009B0000E9456010115110509F451CF0E94000053
:1009C0004ECF46015701E894B7F82FEF3FEF4FE7BE
:1009D0005FE7C501B4010E94580781110DC02FEFD8
:1009E0003FEF4FE75FE7C501B4010E94000618160C
:1009F0001CF484E291E07DCF2FEF3FEF4FE75FE4FF
:100A0000C701B6010E94E60618161CF488E291E0C0
:100A100070CF2FEF3FEF4FE75FECC701B6010E94A9
:100A2000000687FDF3CF20E030E0A901C701B60141
:100A30000E94000687FF56C041E06DE286E691E025
:100A40000E942402C701B60190582AE037ED43EA1C
:100A50005BE30E9494052B013C010E9405064B01BB
:100A60005C010E9434069B01AC01C301B2010E94EB
:100A700093052B013C014AE0C501B4010E949D0190
:100A800041E06EE286E691E00E94240220E030E040
:100A900040E251E4C301B2010E94EB062B013C018C
:100AA0000E9405064B01B12CA12C4AE0C501B401FE
:100AB0000E949D01C501B4010E9434069B01AC0156
:100AC000C301B2010E94930520E030E040E251E40E
:100AD0000E94EB060E94050690E080E04AE00E943A
:100AE0009D0109CFC701B601B0CFE6E6F1E0138260
:100AF000128288E191E09183808387E084838FEF85
:100B0000858386E0868385E0878384E0808783E031
:100B1000818782E08287138614861586168617865B
:100B200081E00C947D025058BB27AA270E94AB0598
:100B30000C94AC060E949E0638F00E94A50620F098
:100B400039F49F3F19F426F40C949B060EF4E095BB
:100B5000E7FB0C949506E92F0E94BD0658F3BA17DF
:100B6000620773078407950720F079F4A6F50C94C3
:100B7000DF060EF4E0950B2EBA2FA02D0B01B90164
:100B800090010C01CA01A0011124FF27591B99F003
:100B9000593F50F4503E68F11A16F040A22F232F0F
:100BA000342F4427585FF3CF469537952795A7955F
:100BB000F0405395C9F77EF41F16BA0B620B730B06
:100BC000840BBAF09150A1F0FF0FBB1F661F771F77
:100BD000881FC2F70EC0BA0F621F731F841F48F42C
:100BE000879577956795B795F7959E3F08F0B0CFB5
:100BF0009395880F08F09927EE0F9795879508959C
:100C00000E94710608F481E008950E94C50688F0EC
:100C10009F5798F0B92F9927B751B0F0E1F0660FC0
:100C2000771F881F991F1AF0BA95C9F714C0B13001
:100C300091F00E94DF06B1E008950C94DF06672F63
:100C4000782F8827B85F39F0B93FCCF38695779530
:100C50006795B395D9F73EF4909580957095619519
:100C60007F4F8F4F9F4F0895E89409C097FB3EF444
:100C700090958095709561957F4F8F4F9F4F9923E9
:100C8000A9F0F92F96E9BB279395F6958795779567
:100C90006795B795F111F8CFFAF4BB0F11F460FF27
:100CA0001BC06F5F7F4F8F4F9F4F16C0882311F07F
:100CB00096E911C0772321F09EE8872F762F05C093
:100CC000662371F096E8862F70E060E02AF09A952E
:100CD000660F771F881FDAF7880F9695879597F923
:100CE0000895990F0008550FAA0BE0E8FEEF1616BD
:100CF0001706E807F907C0F012161306E407F50710
:100D000098F0621B730B840B950B39F40A2661F083
:100D1000232B242B252B21F408950A2609F4A14026
:100D2000A6958FEF811D811D089597F99F6780E833
:100D300070E060E008959FEF80EC089500240A942D
:100D40001616170618060906089500240A941216A6
:100D50001306140605060895092E0394000C11F4D9
:100D6000882352F0BB0F40F4BF2B11F460FF04C086
:100D70006F5F7F4F8F4F9F4F089557FD9058440FDF
:100D8000551F59F05F3F71F04795880F97FB991FEA
:100D900061F09F3F79F087950895121613061406A7
:100DA000551FF2CF4695F1DF08C016161706180634
:100DB000991FF1CF86957105610508940895E8940F
:100DC000BB2766277727CB0197F908950E94710604
:100DD00008F48FEF08950E94FE060C94AC060E9462
:100DE0009E0638F00E94A50620F0952311F00C9481
:100DF00095060C949B0611240C94E0060E94BD06F7
:100E000070F3959FC1F3950F50E0551F629FF0015D
:100E1000729FBB27F00DB11D639FAA27F00DB11D76
:100E2000AA1F649F6627B00DA11D661F829F2227FF
:100E3000B00DA11D621F739FB00DA11D621F839F86
:100E4000A00D611D221F749F3327A00D611D231F5C
:100E5000849F600D211D822F762F6A2F11249F57AA
:100E600050409AF0F1F088234AF0EE0FFF1FBB1FAD
:100E7000661F771F881F91505040A9F79E3F51056C
:100E800080F00C9495060C94E0065F3FE4F3983EE6
:100E9000D4F3869577956795B795F795E7959F5F16
:100EA000C1F7FE2B880F911D9695879597F90895A8
:100EB0000E947106880B990B0895A1E21A2EAA1BB5
:100EC000BB1BFD010DC0AA1FBB1FEE1FFF1FA217FA
:100ED000B307E407F50720F0A21BB30BE40BF50BF7
:100EE000661F771F881F991F1A9469F76095709580
:100EF000809590959B01AC01BD01CF010895EE0F47
:100F0000FF1F0590F491E02D0994F894FFCF4865F8
:100F10006C6C6F2C20776F726C73210000000000E6
:100F2000000000000000320387008D018C016E611B
:100F30006E00696E66006F7666002056004D6F6920
:100F40007374757265204C6F7720004D6F697374F0
:100F5000757265204F4B2000204D6F697374757258
:080F6000652048696768200064
:107E0000112484B714BE81FFF0D085E080938100F7
:107E100082E08093C00088E18093C10086E0809377
:107E2000C20080E18093C4008EE0C9D0259A86E02C
:107E300020E33CEF91E0309385002093840096BBD3
:107E4000B09BFECF1D9AA8958150A9F7CC24DD24C4
:107E500088248394B5E0AB2EA1E19A2EF3E0BF2EE7
:107E6000A2D0813461F49FD0082FAFD0023811F036
:107E7000013811F484E001C083E08DD089C08234E0
:107E800011F484E103C0853419F485E0A6D080C0E4
:107E9000853579F488D0E82EFF2485D0082F10E0AE
:107EA000102F00270E291F29000F111F8ED06801E7
:107EB0006FC0863521F484E090D080E0DECF843638
:107EC00009F040C070D06FD0082F6DD080E0C81688
:107ED00080E7D80618F4F601B7BEE895C0E0D1E017
:107EE00062D089930C17E1F7F0E0CF16F0E7DF06D8
:107EF00018F0F601B7BEE89568D007B600FCFDCFD4
:107F0000A601A0E0B1E02C9130E011968C91119780
:107F100090E0982F8827822B932B1296FA010C0160
:107F200087BEE89511244E5F5F4FF1E0A038BF0790
:107F300051F7F601A7BEE89507B600FCFDCF97BE46
:107F4000E89526C08437B1F42ED02DD0F82E2BD052
:107F50003CD0F601EF2C8F010F5F1F4F84911BD097
:107F6000EA94F801C1F70894C11CD11CFA94CF0C13
:107F7000D11C0EC0853739F428D08EE10CD085E9AC
:107F80000AD08FE07ACF813511F488E018D01DD067
:107F900080E101D065CF982F8091C00085FFFCCF94
:107FA0009093C60008958091C00087FFFCCF809118
:107FB000C00084FD01C0A8958091C6000895E0E648
:107FC000F0E098E1908380830895EDDF803219F02E
:107FD00088E0F5DFFFCF84E1DECF1F93182FE3DFCA
:107FE0001150E9F7F2DF1F91089580E0E8DFEE27F6
:047FF000FF270994CA
:027FFE00040479
:00000001FF
