:020000040000FA
:100000000C945D000C9485000C9485000C94850084
:100010000C9485000C9485000C9485000C9485004C
:100020000C9485000C9485000C9485000C9485003C
:100030000C9485000C9485000C9485000C9485002C
:100040000C948C020C94D6020C9485000C948500C0
:100050000C9485000C9485000C9485000C9485000C
:100060000C9485000C94850000000008000201003B
:100070000003040700000000000000000000000072
:10008000250028002B0000000000240027002A0083
:10009000040404040404040402020202020203032E
:1000A0000303030301020408102040800102040836
:1000B00010200102040810203D0411241FBECFEFC0
:1000C000D8E0DEBFCDBF11E0A0E0B1E0ECE6FBE0A0
:1000D00002C005900D92A032B107D9F721E0A0E24D
:1000E000B1E001C01D92A434B207E1F710E0CDE504
:1000F000D0E004C02197FE010E94AE05CC35D107A7
:10010000C9F70E942F030C94B4050C94000090E0F2
:10011000FC01EC55FF4F249180579F4FFC018491C7
:10012000882399F090E0880F991FFC01EA57FF4F50
:10013000A591B491FC01E458FF4F859194918FB73C
:10014000F894EC91E22BEC938FBF0895AF92BF929D
:10015000CF92DF92EF92FF920F931F93CF93DF9393
:100160006C017B018B01040F151FEB015E01AE18C2
:10017000BF08C017D10759F06991D601ED91FC91E4
:100180000190F081E02DC6010995892B79F7C50111
:10019000DF91CF911F910F91FF90EF90DF90CF9063
:1001A000BF90AF90089590E0FC01E859FF4F249173
:1001B000FC01EC55FF4F3491FC01E057FF4FE491F7
:1001C000EE23C9F0222339F0233001F1A8F42130C5
:1001D00019F1223029F1F0E0EE0FFF1FE458FF4F34
:1001E000A591B4918FB7F894EC91611126C0309528
:1001F0003E233C938FBF08952730A9F02830C9F0E3
:10020000243049F7809180008F7D03C08091800069
:100210008F7780938000DFCF84B58F7784BDDBCF6D
:1002200084B58F7DFBCF8091B0008F778093B00035
:10023000D2CF8091B0008F7DF9CF3E2BDACF3FB780
:10024000F8948091280190912901A0912A01B09100
:100250002B0126B5A89B05C02F3F19F00196A11DC3
:10026000B11D3FBFBA2FA92F982F8827BC01CD0100
:10027000620F711D811D911D42E0660F771F881F5F
:10028000991F4A95D1F70895089590E080E0089568
:10029000CF93DF93EC0160E08E810E94D30061E098
:1002A0008E810E94D30060E08E810E94D3008BE893
:1002B00091E00197F1F7DF91CF910895CF92DF920E
:1002C000EF92FF920F931F93CF93DF936C017C010A
:1002D00087E0E80EF11CD0E0C0E0062F10E0B80186
:1002E0000C2E02C0759567950A94E2F76170F701CC
:1002F00081917F010E94D3002196C430D10579F706
:10030000C601DF91CF911F910F91FF90EF90DF9089
:10031000CF900C944801CF92DF92EF92FF920F930F
:100320001F93CF93DF93EC01F62E642F8C810E94F4
:10033000D3008D818F3F19F060E00E94D3000F2D14
:1003400010E08F8584FF25C06E0187E0C80ED11CA8
:10035000F12CE12CB8010E2C02C0759567950A941A
:10036000E2F76170F60181916F010E94D300FFEF07
:10037000EF1AFF0A88E0E816F10461F7CE01DF9179
:10038000CF911F910F91FF90EF90DF90CF900C9441
:100390004801B80184E0759567958A95E1F7CE012B
:1003A0000E945E016F2DCE01DF91CF911F910F91C1
:1003B000FF90EF90DF90CF900C945E0140E0682FAB
:1003C0008CE291E00C948B01CF93DF93823029F47F
:1003D00090913B01986090933B0180933F01109274
:1003E000400180E48093410180E18093420180E5F7
:1003F00080934301809130010E94870080913101F8
:100400008F3F11F00E948700809132010E94870087
:10041000CCE2D1E09E012C52314080913B0184FD21
:100420000AC084E090E02196281739073CF48E81B9
:100430000E948700EFCF88E090E0F5CF8BE39DE04E
:100440000197F1F760E0809130010E94D30060E0F5
:10045000809132010E94D300809131018F3F19F0C9
:1004600060E00E94D30080913B0184FD39C063E0CD
:100470008CE291E00E945E01CBE4D6E4CE010197CC
:10048000F1F763E08CE291E00E945E012197F1F7C1
:1004900063E08CE291E00E945E0183E592E00197C7
:1004A000F1F762E08CE291E00E945E0180913B01F5
:1004B00080620E94DE0184E080933C018CE00E9417
:1004C000DE0181E00E94DE018BE39FE10197F1F7FD
:1004D00082E080933D0186E0DF91CF910C94DE01B4
:1004E00080620E94DE018BE496E40197F1F780912F
:1004F0003B0180620E94DE0183E592E00197F1F703
:1005000080913B0180620E94DE01D0CF41E00E94D9
:100510008B0181E090E008951F920F920FB60F9229
:1005200011242F933F938F939F93AF93BF93809109
:10053000240190912501A0912601B09127013091CD
:10054000230123E0230F2D3758F50196A11DB11D7E
:10055000209323018093240190932501A0932601E9
:10056000B09327018091280190912901A0912A013F
:10057000B0912B010196A11DB11D8093280190938C
:100580002901A0932A01B0932B01BF91AF919F91B4
:100590008F913F912F910F900FBE0F901F90189544
:1005A00026E8230F0296A11DB11DD2CF1F920F92F4
:1005B0000FB60F9211242F933F938F939F93EF9336
:1005C000FF938EB5813009F58093220110922101AD
:1005D0001092200180912001909121019C012F5FB8
:1005E0003F4F309321012093200180509F4FFC0109
:1005F00080818EBDFF91EF919F918F913F912F91BF
:100600000F900FBE0F901F901895823011F481E06B
:10061000F0CF80912201811102C01EBCEBCFE0918E
:100620002001F0912101E050FF4F80818EBDE091CB
:100630002001F0912101E050FF4F8081811103C022
:1006400010922201D7CF8091200190912101019633
:100650009093210180932001449790F7CBCFCF93C3
:10066000DF93CDB7DEB7A1970FB6F894DEBF0FBE0C
:10067000CDBF789484B5826084BD84B5816084BD2B
:1006800085B5826085BD85B5816085BD80916E0030
:10069000816080936E001092810080918100826061
:1006A000809381008091810081608093810080919E
:1006B00080008160809380008091B100846080938D
:1006C000B1008091B00081608093B00080917A0089
:1006D000846080937A0080917A00826080937A00AF
:1006E00080917A00816080937A0080917A0080689E
:1006F00080937A001092C10082E00E94E4018CE0B5
:100700000E9487008CB580648CBD8CB580688CBDE0
:1007100090E4392E2AE0822E912CA12CB12C00E0FD
:1007200010E030927C0080917A00806480937A009F
:1007300080917A0086FDFCCF8091780060917900ED
:10074000762F682F072E000C880B990B0E949304BC
:100750002AE038E240EA5BE30E94F70420E030E060
:1007600048EC52E40E94F7040E945B046B01E091A4
:100770003F01E23008F069C0E150F0E0E45DFE4F77
:10078000848980680E94DE010D2C000CEE08FF08B1
:10079000F7FE5DC041E06DE28CE291E00E948B01CA
:1007A00022273327A9012C193D094E095F0919A2F7
:1007B000CE0181967C01CA01B901A50194010E9474
:1007C0008C05605DF70162937F01211531054105BC
:1007D000510589F7E114F10461F001900020E9F777
:1007E0003197AF014E195F09B7018CE291E00E9489
:1007F000A6000E941F012B013C0188EEC82E83E059
:10080000D82EE12CF12C0E941F016419750986096C
:100810009709683E734081059105A8F3F1E0CF1A6E
:10082000D108E108F10828EE420E23E0521E611CB7
:10083000711CC114D104E104F10429F7011511055B
:1008400009F46FCF0E9400006CCFE1E096CFA701C2
:10085000960119A2CE0181967C01CA01B901A501B8
:1008600094010E948C05605DF70162937F01211560
:1008700031054105510589F7ADCFECE2F1E0138276
:10088000128288E191E09183808387E084838FEFF7
:10089000858386E0868385E0878384E0808783E0A4
:1008A000818782E0828713861486158616861786CE
:1008B00081E00C94E4010E9462046894B1110C94EC
:1008C000F10408950E94D60488F09F5798F0B92F3C
:1008D0009927B751B0F0E1F0660F771F881F991F75
:1008E0001AF0BA95C9F714C0B13091F00E94F00423
:1008F000B1E008950C94F004672F782F8827B85F33
:1009000039F0B93FCCF3869577956795B395D9F7CC
:100910003EF490958095709561957F4F8F4F9F4FD6
:100920000895E89409C097FB3EF4909580957095E2
:1009300061957F4F8F4F9F4F9923A9F0F92F96E92B
:10094000BB279395F695879577956795B795F111A0
:10095000F8CFFAF4BB0F11F460FF1BC06F5F7F4F3D
:100960008F4F9F4F16C0882311F096E911C077234F
:1009700021F09EE8872F762F05C0662371F096E858
:10098000862F70E060E02AF09A95660F771F881F27
:10099000DAF7880F9695879597F9089557FD90583F
:1009A000440F551F59F05F3F71F04795880F97FB33
:1009B000991F61F09F3F79F08795089512161306ED
:1009C0001406551FF2CF4695F1DF08C0161617061C
:1009D0001806991FF1CF8695710561050894089551
:1009E000E894BB2766277727CB0197F908950E94E3
:1009F0000A050C947B050E946D0538F00E94740571
:100A000020F0952311F00C9464050C946A051124D0
:100A10000C94F1040E94CE0470F3959FC1F3950FDE
:100A200050E0551F629FF001729FBB27F00DB11D72
:100A3000639FAA27F00DB11DAA1F649F6627B00D02
:100A4000A11D661F829F2227B00DA11D621F739FEB
:100A5000B00DA11D621F839FA00D611D221F749FF9
:100A60003327A00D611D231F849F600D211D822F40
:100A7000762F6A2F11249F5750409AF0F1F0882367
:100A80004AF0EE0FFF1FBB1F661F771F881F915094
:100A90005040A9F79E3F510580F00C9464050C94DA
:100AA000F1045F3FE4F3983ED4F38695779567951C
:100AB000B795F795E7959F5FC1F7FE2B880F911DBE
:100AC0009695879597F9089597F99F6780E870E064
:100AD00060E008959FEF80EC089500240A941616B4
:100AE000170618060906089500240A94121613061C
:100AF000140605060895092E0394000C11F48823AA
:100B000052F0BB0F40F4BF2B11F460FF04C06F5FC5
:100B10007F4F8F4F9F4F0895A1E21A2EAA1BBB1B38
:100B2000FD010DC0AA1FBB1FEE1FFF1FA217B307B9
:100B3000E407F50720F0A21BB30BE40BF50B661FCF
:100B4000771F881F991F1A9469F760957095809593
:100B500090959B01AC01BD01CF010895EE0FFF1FE1
:100B60000590F491E02D0994F894FFCF48656C6CE2
:100B70006F2C20776F726C64210000000000000071
:0C0B8000000000008602A60045014401B0
:107E0000112484B714BE81FFF0D085E080938100F7
:107E100082E08093C00088E18093C10086E0809377
:107E2000C20080E18093C4008EE0C9D0259A86E02C
:107E300020E33CEF91E0309385002093840096BBD3
:107E4000B09BFECF1D9AA8958150A9F7CC24DD24C4
:107E500088248394B5E0AB2EA1E19A2EF3E0BF2EE7
:107E6000A2D0813461F49FD0082FAFD0023811F036
:107E7000013811F484E001C083E08DD089C08234E0
:107E800011F484E103C0853419F485E0A6D080C0E4
:107E9000853579F488D0E82EFF2485D0082F10E0AE
:107EA000102F00270E291F29000F111F8ED06801E7
:107EB0006FC0863521F484E090D080E0DECF843638
:107EC00009F040C070D06FD0082F6DD080E0C81688
:107ED00080E7D80618F4F601B7BEE895C0E0D1E017
:107EE00062D089930C17E1F7F0E0CF16F0E7DF06D8
:107EF00018F0F601B7BEE89568D007B600FCFDCFD4
:107F0000A601A0E0B1E02C9130E011968C91119780
:107F100090E0982F8827822B932B1296FA010C0160
:107F200087BEE89511244E5F5F4FF1E0A038BF0790
:107F300051F7F601A7BEE89507B600FCFDCF97BE46
:107F4000E89526C08437B1F42ED02DD0F82E2BD052
:107F50003CD0F601EF2C8F010F5F1F4F84911BD097
:107F6000EA94F801C1F70894C11CD11CFA94CF0C13
:107F7000D11C0EC0853739F428D08EE10CD085E9AC
:107F80000AD08FE07ACF813511F488E018D01DD067
:107F900080E101D065CF982F8091C00085FFFCCF94
:107FA0009093C60008958091C00087FFFCCF809118
:107FB000C00084FD01C0A8958091C6000895E0E648
:107FC000F0E098E1908380830895EDDF803219F02E
:107FD00088E0F5DFFFCF84E1DECF1F93182FE3DFCA
:107FE0001150E9F7F2DF1F91089580E0E8DFEE27F6
:047FF000FF270994CA
:027FFE00040479
:00000001FF
